:1000000098570020F91D0000B5560000E51D0000BE
:10001000E51D0000E51D0000E51D000000000000DA
:100020000000000000000000000000004D1E000065
:10003000E51D000000000000E51D0000E51D0000BA
:10004000B11F0000B11F0000B11F0000B11F000070
:10005000B11F0000B11F0000B11F0000B11F000060
:10006000B11F0000B11F0000B11F0000B11F000050
:10007000B11F0000B11F0000B11F0000B11F000040
:10008000B11F0000B11F0000B11F0000B11F000030
:10009000B11F0000B11F0000B11F0000B11F000020
:1000A000B11F0000B11F0000B11F0000B11F000010
:1000B000B11F0000B11F0000B11F0000B11F000000
:1000C000B11F0000B11F0000B11F0000B11F0000F0
:1000D000B11F0000B11F0000B11F0000B11F0000E0
:1000E000B11F0000B11F0000B11F0000B11F0000D0
:1000F000B11F0000B11F0000B11F0000B11F0000C0
:1001000053B94AB9002908BF00281CBF4FF0FF317E
:100110004FF0FF3000F00CB8ADF1080C6DE904CEE3
:1001200000F008F8DDF804E0DDE9022304B07047D0
:10013000704700BF2DE9F04786468C460846089E6A
:10014000154674461946002B40F0C2808542B2FA2B
:1001500082F245D94AB1C2F1200300FA02FC2EFA1C
:1001600003F3954043EA0C0C94404FEA154EA8B2B5
:10017000BCFBFEF8230C0EFB18CC08FB00F943EA8D
:100180000C43994528D9EB1808F1FF3704D299455B
:1001900002D9A8F102072B44A3EB0903A4B2B3FBD5
:1001A000FEFC0EFB1C330CFB00F044EA0344A042AF
:1001B00014D92C190CF1FF3304D2A04202D9ACF1AE
:1001C00002032C44241A43EA07401EB1D440002302
:1001D00034607360BDE8F0874746DDE76346F1E7CA
:1001E00092BB431B01214FEA154EAFB2B3FBFEFC9D
:1001F000200C0EFB1C330CFB07F840EA0343984528
:1002000062D9EB180CF1FF3004D2984502D9ACF159
:1002100002002B44A3EB0803A4B2B3FBFEFC0EFBCD
:100220001C330CFB07F744EA0344A7424ED92C19B0
:100230000CF1FF3304D2A74202D9ACF102032C44E3
:10024000E41B43EA0040C0E7C2F1200320FA03F1B7
:10025000954090402EFA03F303434FEA154EAFB298
:10026000B1FBFEFC0EFB1C10190C0CFB07F841EA5D
:100270000041884504FA02F422D969180CF1FF30D4
:1002800004D2884502D9ACF102002944A1EB08014F
:100290009BB2B1FBFEFC0EFB1C110CFB07F743EA03
:1002A00001439F420ED9EB180CF1FF3104D29F425B
:1002B00002D9ACF102012B44DB1B41EA004192E779
:1002C0006046E3E76146F7E76046A3E76346B7E7C2
:1002D000834206D916B9002108467BE7C6E900E04B
:1002E000F9E7B3FA83F78FB9834201D3724508D88F
:1002F000BEEB020460EB030301209C461EB9002103
:1003000068E73846FAE7C6E9004CF8E7C7F1200C81
:10031000BB4022FA0CF41C432EFA0CF120FA0CF329
:10032000B84001434FEA14490EFA07F5B3FBF9F858
:100330001FFA84FE09FB18300B0C08FB0EFA43EA87
:1003400000439A4502FA07F240D9E31808F1FF305A
:1003500004D29A4502D9A8F102002344A3EB0A0370
:1003600089B2B3FBF9F809FB183308FB0EFE41EA2A
:1003700003418E452CD9611808F1FF3304D28E4514
:1003800002D9A8F10203214443EA0040A0FB0298ED
:10039000A1EB0E014145CE46434602D306D14D4561
:1003A00004D2B9EB020E68EB04030138002EA6D08C
:1003B000B5EB0E0261EB030101FA0CFC22FA07F324
:1003C0004CEA0303F940C6E9003198E74046C5E727
:1003D0004346D9E77FB5274B274AC3F8002627486D
:1003E000C3F804264921C3F80826C3F80C26C3F82D
:1003F0001026C3F81426C3F81826C3F81C2605F0E7
:10040000D7F800F069F801A800F0ECFC1C4B1B6861
:10041000834204D01B48452105F0CAF8FEE7039A41
:100420001948492105F0C4F81848492105F0C0F8D9
:1004300069469DF8080000F02DF8009B039C1C44C1
:10044000019B1D8902F09AFE661900F0C3FF01F0BE
:10045000EBFC635983F30888002383F31488BFF30C
:100460006F8FBFF36F8F736898470948452105F078
:100470009FF8FEE7000001403546526E2C740000E4
:10048000700100204574000068740000977400003B
:10049000BC74000008B5024638B105480023452168
:1004A00005F086F86FF0150008BD0860FCE700BF96
:1004B000DF74000021B1012906D06FF015007047EC
:1004C000044B53F830007047024B03EBC0035868ED
:1004D000704700BF7871000002484FF4C05104F02B
:1004E0009DB800BF940E00202DE9F04FF9B0DDE972
:1004F0008489DFF8BCB1869FDBF8005038A8164627
:100500001C4606F05BFB002138A804F0BDF9B8F1E9
:10051000000F07D0B9F1000F04DD4A46414638A864
:1005200006F055FB33897289D6F80CA013449A441F
:100530004FF00008C24544D80DA938A806F086FB44
:1005400027B120220DA9384605F0E6F800230093D4
:1005500022464FF6FF73314607A804F0F5FC8046AB
:1005600060BB20460C9E00F0D9F9864226D8DFF801
:1005700044914FF0FF370DF1160305AA06A907A80D
:1005800004F030FD002819DB40F08A80BDF81660C9
:10059000102E2ED1BDF81460202E0FD106993346AF
:1005A00038AA204605F012F840B9324638A90DA8FD
:1005B00004F064FD404B1B68834217D0DBF8005009
:1005C00071E0839B829AAAEB0809994528BF994656
:1005D0004B464146204604F0F9FF0028EED18299AF
:1005E0004A4638A806F0F3FAC844A3E74FF00108DA
:1005F000C1E7012E35D1BDF81430202BDED8069985
:1006000038AA204604F0E2FF07460028D6D19DF81C
:1006100014A0BAF1200F02D94FF0FF37ABE7D9F899
:100620000030264E0393039B9F42F5DA1DA806F087
:10063000C5FA00211DA804F027F9726856F8081BB6
:1006400012681DA806F0C3FA15A91DA806F0FEFA47
:10065000524638A915A805F04FF800288BD001376D
:10066000E1E7202E87D17B1C85D0D9F80030BB4232
:10067000D2DDBDF81430B3F5807F9FD1069938AA3A
:10068000204604F0A3FF002898D1FFB2BDF8143033
:10069000009738AA31460DA800F012F80546BBE7CE
:1006A000B8F1000F8AD0284679B0BDE8F08F00BFBE
:1006B000040000208071000070010020847100009F
:1006C0002DE9F04FDFF8D4A1ADF5417D07462AA80A
:1006D0009DF828B3DAF800501E468946904606F089
:1006E00026FA092201212AA804F04AF86C4B53F893
:1006F0003B40059403EBCB0380AA5B681B681C445A
:100700002146302305A805F06EFA002840F0BE808F
:10071000059B809A13449C4240F0B8802CAA214645
:1007200005A805F074FA002840F0B0800DF1B80B70
:100730005A46214605A805F06AFA0390002840F0C1
:10074000A5802CA805F081FD059A2B90944240F0DD
:100750009D80039BCDF804B000931A462CA92AA8CB
:1007600006F0A2F9002840F091802AA804F01EF8B3
:10077000002840F08B802CA805F067FD2B902AA85C
:1007800006F0DFF9864240F08180B6F5807FDAF826
:1007900000507BD1B9F1200F78D180AA41462AA818
:1007A00004F02AF80446002870D19DF8FF32BC2BD3
:1007B0006CD106900DF59079DF260FA806F0FEF9B2
:1007C00000210FA804F060F820220DF2DF210FA80D
:1007D00006F0FDF9042206A90FA806F0F8F907A90A
:1007E0000FA806F033FA202E9DF81B30B046A8BFA4
:1007F0004FF0200801334846424607A9A6EB0806F9
:100800008DF81B3004F088FF002EC144D5DC48ABC6
:1008100080AA184600219C46067812F801EB0131A7
:1008200086EA0E06DF2900F8016BF5D11A7802F08E
:100830007F021A7013F8016B46BB0134BE2CF9D14C
:100840009CF8BE30012B21D10FA806F0B7F9314634
:100850000FA804F019F8134908220FA806F0B7F9F9
:10086000394620220FA806F0B2F920220DF2DF113E
:100870000FA806F0ACF907A90FA806F0E7F92022A7
:100880000DF2DF2107A804F0F9FB05462AA806F0BF
:100890005AF928460DF5417DBDE8F08F040000208F
:1008A0008471000005750000094A0B78400052F879
:1008B00020108B4209D0013052F82000834214BF2F
:1008C0004FF0FF304FF4C07070474FF4C070704766
:1008D0008C7100001FB50F4B13F830000C4601F06F
:1008E000F3F850B92068816810236A46103904F083
:1008F0006DFE28B1206804F068FE4FF0FF3006E07E
:1009000005491022684604F0F7FE0028F2D104B031
:1009100010BD00BF8C7100001C74000013B50446AC
:1009200004F0B3FB6A460146204604F0F4FA30B105
:100930000448452104F03CFE002002B010BD0098A0
:10094000FBE700BF0D7500002DE9F041364B88B084
:10095000064600200D461C68FFF7ACFD06A9C0B294
:1009600001F0B2F8002858D12946FFF7A3FD2C2446
:1009700007A9C0B204FB056401F0A6F8002833D033
:100980002C276F4306EB0708069BD8F8101011F0D0
:10099000100138D14FF480720192244A0092CDE9BF
:1009A0000311224602910846FFF79EFD0446204BA4
:1009B000F25906989A420CD1D8F80C20B8F80830B1
:1009C0009B1806D28268934203D21A4B1B68A3423B
:1009D00020D035B38268002104F022FE164A174861
:1009E000452104F0E5FD13E0079804F034FE0746C6
:1009F000079804F0EAFD631EE21C13F8011FB942D8
:100A0000BED19342F9D11DB10699304604F027FCBE
:100A10000B4B1C68069804F0D8FD204608B0BDE8D2
:100A2000F081084ADBE700BF040000209426002084
:100A30003DB8F39670010020507500005A75000013
:100A400000000020487500007FB50D4604460021D7
:100A50002846CDE9021104F0C1FB28B32368194EE2
:100A6000B34203D103AA204604F04DFBE36AB3422C
:100A700004D102AA0121204604F045FBDDE902323F
:100A8000934288BF0393039BAB60039A2946204699
:100A900000F0A8FB0C4B1A68002A03DD0B48572115
:100AA00004F086FD04B070BD01A9FFF713FF0198A3
:100AB00005F1080104F0F4FAAB680198039304F01F
:100AC00084FDE2E73DB8F396D40D00208275000066
:100AD0002DE9F84FDFF870B01C4C1D4D884691464B
:100AE0009A4600260B9B9E4201D300200FE00B9BF1
:100AF000154A9F1BB7F5806F28BF4FF480673B46B0
:100B000006EB0A01404604F061FD10B10120BDE88A
:100B1000F88F0A993B465A467118484604F06BFD17
:100B20000028F3D1C4F800563E44C4F80456C4F873
:100B30000856C4F80C56C4F81056C4F81456C4F835
:100B40001856C4F81C56CDE7740900200000014077
:100B50003546526EF0B5994B43620E46984B03658D
:100B6000002189B004460846FFF7A4FC04F12001E7
:100B70000546C0B200F0A8FF0346E8B90121FFF71F
:100B800099FC04F14C010546C0B200F09DFF0346FC
:100B9000E0B9204604F0F8FA0546C8B9002211462B
:100BA000204604F09AFA054660B386480022572191
:100BB00004F0FEFC01239CE00022CDE900238248E2
:100BC00000232A46452104F0F3FCFEE70122F4E766
:100BD0007E488022572104F0EBFC01239D4284F8DB
:100BE0005830DBD194F858308DF81730042B00F2D0
:100BF0008380012B00F2878000F09A80FF2384F825
:100C0000583095E0204600F0FFF90028D2D004A823
:100C100004F0DBFA0146204604F076FB18B16C487C
:100C20002A465721C4E704A804F0D8FA80F001014D
:100C300004AAC9B2204604F050FA02460028B4D1F2
:100C400004A804F0CBFA054660BB04A92046FFF7D0
:100C5000FBFE9DF8173084F85830033B012B06D873
:100C6000284600F0E5F810B1FF2384F858309DF8CD
:100C70001730023B022B0BD8002000F0C3F838B12C
:100C8000FF2384F858305348452104F091FCFEE7D7
:100C900094F85830FF2BF6D004AA0021204604F027
:100CA0001CFA87E79DF81770012F17D1104603F043
:100CB0005DFF831E022B05460DD839462046FFF7FF
:100CC00043FE454B1B68984205D0444B1D68A84223
:100CD00014BF0525012584F8585083E701212046DB
:100CE000FFF732FE3C4B1B6898420CBF9DF8173053
:100CF000052384F8583075E7052B7FF47FAF00207B
:100D000000F096F811E004A92046FFF79DFE94F844
:100D10005830DA1E012A14D8002000F089F8002883
:100D20007FF46CAF002000F06DF800287FF466AF10
:100D300094F85830FF2B07D12648452104F038FCA1
:100D4000FEE7022BF4D1EDE70021012B244D0391A6
:100D500014D004AA204604F0C0F978B12D681022FE
:100D600000210DEB020004F0E2FCE06C04F02DFC2D
:100D7000206A04F02AFC284609B0F0BD0021204674
:100D8000FFF7E2FD144F3B689842E7D12B68984289
:100D9000E4D0124B1B689842E0D0039B01330393CD
:100DA000039B012B00D0FEE7206A04F0B2F83071FB
:100DB000236A5B6834603D68B360D0E77405002047
:100DC0007401002040760000B1750000FE7500003F
:100DD0006C76000096760000700100200000002074
:100DE0000400002038B5064D044660220021284644
:100DF00004F09DFC21462846FFF7ACFE38BD00BF3D
:100E0000740D002013B5094B01A913F8300000F050
:100E10005BFE48B9019806F048F80446019804F0D2
:100E2000D4FB204602B010BD0124FAE79471000003
:100E30001FB50F4B01A913F8300000F045FEA8B90B
:100E4000019802A903F03CFE044668B99DF80B30F6
:100E5000032B03D1019805F0F6FF0446019804F036
:100E6000B4FB204604B010BD0124F7E70124F8E7E5
:100E7000947100002DE9F34106460C4617461D46C5
:100E80000BB9002628E0184604F0A8F90028F8D18C
:100E90006946FFF71FFD009838B90124009804F057
:100EA00094FB204602B0BDE8F08101A904F0F8F8F7
:100EB0000028F2D1009804F088FB3046019904F034
:100EC00071FA736A5E686B79012B21D1002CD8D13D
:100ED0002B68834298BF002621460020FFF7EAFADC
:100EE0006946C0B200F0F0FD0028D6D1009820235A
:100EF0003A46314604F06AFB04460028CDD1002D65
:100F0000CCD03C680D4BE41A18BF4FF0FF34C5E756
:100F1000022BB6D12B68012B05D98342B1D8B4FA84
:100F200084F46409ADE7ACD1002CD5D0012CA8D154
:100F30002C79023C18BF0124A3E700BF3DB8F3960B
:100F40002DE9F04F074685B00C46014600201646B5
:100F5000FFF7AAFC051E50DB3846E46D04F095F857
:100F60005FFA84F96B1E09FB03084FF0000A4FF08B
:100F7000010B4FF0FF349DB9BAF1010F03DD214899
:100F8000452104F015FB631C06D07F2C2ADC0134BC
:100F900040F201133460B380284605B0BDE8F08FFD
:100FA0006B1E00930DF10F0201234146384604F0F9
:100FB0000DFB031E019322DB01220DF10F013846C8
:100FC00005F0DCFE019B40B15B4501D00AF1010A4E
:100FD000009DA8EB09089B46CDE7B4F1FF3F08BF91
:100FE0002C46F5E70223803C7371631004F0010482
:100FF0000133013433603471CEE70725CCE7012596
:10100000CAE700BFA276000070B5866A456D044647
:1010100004F0B7F9AE420AD06B1CB34207D083424A
:1010200005D01448572104F0C3FA002070BD802E6B
:101030001CD911485721F6E7626A216D02EBC30201
:1010400001EBC30152684968914202D00B48572115
:10105000E9E701339D42EFD1AE4205D9636A03EB64
:10106000C5035B689342F1D10120DFE700231A46F4
:10107000F0E700BFC5760000FD7600002C77000089
:1010800000B589B004A9012005F0EAFE9DF8102002
:10109000012A41D0254B2649032A08BF0B469DF85B
:1010A000132002929DF8122001929DF811202148F0
:1010B00000924921204A04F07BFA06A9022005F09B
:1010C000CFFE9DF81820012A28D0184B1849032A72
:1010D00008BF0B469DF81B2002929DF81A20019232
:1010E0009DF8192000921348144A492104F060FA2F
:1010F0009DF81030012B13D19DF81230032B0FD126
:101100009DF81830012B0BD00D48492104F050FAFE
:10111000022009B05DF804FB0A4BC0E7094BD9E790
:101120000948492104F044FA0020F2E7587700000A
:10113000617700007577000067770000B6770000E0
:10114000C67700005C770000E577000070B54B685B
:1011500014461E4A03F0FF23934286B006460D460E
:101160002FD10B68012B2CD104A9204603F0A8FC39
:101170009DF81020012A26D0154B1649032A08BFD6
:101180000B469DF8132002929DF8122001929DF8C3
:10119000112000921048114A492104F009FA9DF8E3
:1011A0001030032B0DD12146304604F058F820466C
:1011B00005F049FEA968204603F080FF204603F0B1
:1011C0005FFC06B070BD064BDBE700BF000100040A
:1011D000587700006177000075770000B67700004F
:1011E0005C7700002DE9F04F164689B005460C46A5
:1011F0007448492104F0DCF93146284604F0D2F85D
:101200006B6A824620465E6803F0E8FFE8B1E86D4D
:1012100003F036FFAF6A0023013F3344834201D21B
:10122000013FFAE7BA4510D36748572104F0C0F9E7
:1012300007FB06F365480AFB0662572104F0B8F97C
:101240000123E37109B0BDE8F08F06A9012000F089
:101250003BFC07A9022000F037FC079A21462846EC
:10126000FFF774FF6379012B4BD1DFF864B1574668
:1012700041E02268C2F1010353449F423AD86B6AAD
:10128000196853F8370003EBC703012A53F8083CE9
:10129000A3EB0103A0EB0109049311D1079B039376
:1012A000E368022B08D04146284603F0D8FF2246C7
:1012B0004146284604F009F80399284603F0CFFF79
:1012C00032464946404603F0C8FF049B4246414629
:1012D000CDE900962846FFF7FBFB2146284603F0A0
:1012E0008AFF23680133236020B1DBF8003001332B
:1012F000CBF80030013FDDF81880002FB9D1012371
:101300002360022363710127BA45DDF8189006D2E5
:10131000484604F05AF9079804F057F992E7236811
:101320009F424DD36A6ADDF81CB052F83710049121
:10133000FB00083B11680391D1582A6DD0581368FF
:10134000A0EB03082379012B38D1039B3246C91A3D
:101350004846059103F081FF0599009143464A46AE
:10136000594601962846FFF7B3FB2146284603F06D
:1013700042FF0223237118B1154A13680133136029
:1013800032464146584603F068FFDDE903234946EB
:101390009B1ACDE900865A462846FFF799FB21465D
:1013A000284603F028FF23680133236001232371BB
:1013B00030B1074A13680133136001E0022BDFD01C
:1013C0000137A1E7FC770000257800005478000081
:1013D000D40D0020BFF36F8F72B6124B4FF0FF3267
:1013E000C3F88020C3F88420C3F88820C3F88C2079
:1013F000C3F89020C3F89420C3F89820C3F89C2029
:10140000C3F88021C3F88421C3F88821C3F88C2154
:10141000C3F89021C3F89421C3F89821C3F89C2104
:10142000704700BF00E100E0014B1B68184700BF98
:101430000800002007B50B46002102460091034832
:1014400000F00CF803B05DF804FB00BF29140000A5
:10145000014B1860704700BF080000202DE9F04FD5
:101460008DB01D46531E8246019103934FF0000933
:10147000039B5878252803F1010419D11E4600204A
:101480004FF0FF3802360346029044463178039607
:10149000392954D81F2914D8002900F0EE81019968
:1014A0002520D04701993078D04709F10209DFE7BC
:1014B000002800F0E2810199D04709F10109039465
:1014C000D6E7A1F12002192AE9D801A757F822F09E
:1014D000391500009F1400009F140000391500000A
:1014E0009F140000B91500009F1400009F14000015
:1014F0009F1400009F14000005160000391500001D
:101500009F14000019160000C51500009F1400006C
:10151000D3150000F3150000F3150000F3150000CB
:10152000F3150000F3150000F3150000F31500009B
:10153000F3150000F315000008460136A6E7582908
:1015400000F0EB80A1F16302D7B2172FA7D8172ABA
:10155000A5D801A757F822F0C11700003F160000D8
:101560009F1400009F1400009F1400001F1600002D
:101570003F1600009F1400009F1400001F1600007B
:101580009F1400009F1400009F140000F516000037
:101590009F1400009F140000951700009F14000086
:1015A0003F1600009F1400009F140000F516000075
:1015B0009F1400001F16000001992520D04709F153
:1015C000010955E7029A02F0FE0202924FF000086C
:1015D000B3E7002C0DDAB8F1000F0DDA029A002AF9
:1015E00000F0438124EAE4740A2202FB0414303C34
:1015F000A3E7B8F1000FF5DB0A2202FB0812A2F103
:1016000030089AE7B8F1000F55F8042B80F22F81CB
:10161000002A80F22E815442022202928DE768292C
:1016200003D1682B06D1482387E76C2902D16C2BA4
:1016300000F02181002B7FF432AF0B467DE77A2B3F
:1016400006D1752955F8046B14D14FF0000B0CE04E
:101650006C2BF6D04C2BF4D1073525F007037529F8
:10166000D3E9006B03F1080506D120283BD1854F53
:10167000013C09E04FEAE67BBBF1000FF5DA764268
:10168000814F6BEB4B0B013C0DF12D0305930023B8
:101690000493304659460A220023FEF731FD059B8C
:1016A000303203F8012DB4460593049B5A46BCF131
:1016B0000A0F8B4672F1000203F1FF3106460491D6
:1016C000E7D2C3F1010B30330DEB0306B8F1000F85
:1016D000A6F104066DDA029BD9077DD4A8EB0B03B3
:1016E000A4EB0B0413E02B280ABF684F684F04F1EA
:1016F000FF34C9E770290FD155F8042B0023FAB93C
:10170000634F644E053C6FF004034FF0050B029AE3
:10171000920770D4A04666E078216C2B03D155F86F
:10172000042B002308E04C2BF9D1073525F00703E3
:101730001D465B6855F8082B232825D1880621D53E
:10174000554F023C01F06001A1F1390B0DF12D0E56
:10175000002602F00F01092988BF594430310EF8E4
:10176000011D102A4FEA121141EA03714FEA131CBE
:1017700073F1000306F1FF3008D2C6F1010B06F148
:101780003003A1E7454FDCE7414FDBE706460A4659
:101790006346DEE755F8046B304603F0A6FFB8F168
:1017A000000F834602DB4045A8BFC346384F4FF0C9
:1017B0000008A8EB0B03002B92DDA4EB0804A6E7BE
:1017C00055F8043B8DF81830314F013C4FF0FF3392
:1017D0004FF0010B06AE9AE7A046EAE702930199A3
:1017E0002020D047029BB8F10108F7D524EAE47223
:1017F000013C9144A41AB84606E004930292019970
:10180000D047029A049B9046424612F8010B0028EA
:10181000F3D11A46013A15D5002BACBFC7EB03072D
:101820007F425B46013B15D5BBF1000FA8BF5F446B
:101830004F442646013E14D5002CA8BF3F1907EBA4
:10184000080915E60493029201993020D047049BC1
:10185000029ADFE70293019916F8010BD047029B29
:10186000E0E701992020D047E4E70122D5E6904641
:1018700063E6144661E64C235FE648460DB0BDE8DA
:10188000F08F00BF957900009379000097790000F0
:10189000A17600009F790000997900009C790000F2
:1018A0002DE9F047058B04462807904611D40229FC
:1018B00005F0070540F0CD80204603F09FFD78B18C
:1018C0000138218B042811D8DFE800F0C3106D85A2
:1018D000950001290CBF45F0100545F02005258332
:1018E00088F31188BFF36F8FBDE8F08701F0070A16
:1018F000AA4500F0A6800027B9463E46A368002B03
:1019000000F0BD8041F00801218388F31188BFF306
:101910006F8FA168002900F0BB800D68002900F0DE
:10192000B780D1F80480334652462046C047002D88
:1019300076D02B6829461D46F0E701F007035A1FB1
:10194000012A1BD8002221F00701062B276889B243
:10195000C4E9002209D13B4603E0628B0132628375
:101960001B68002BF9D141F002012183204603F0CE
:1019700045FD00287BD041F0200177E0042B0AD1FF
:1019800021F0070189B22183204603F037FD10B111
:1019900041F020012183218B01F0070AAA4550D094
:1019A0000027B946AAE7236921F0070141F00601A3
:1019B000062DD3F8009021832DD1B9F1000F40D02E
:1019C00041F00801218388F31188BFF36F8F3A49F2
:1019D0002046C84729E021F00701236941F00401AE
:1019E00089B2042DD3F804902183E6D000273E4627
:1019F0004FF0040A82E721F00701236941F0050155
:101A000089B2052DD3F808902183D6D000273E4611
:101A10004FF0050A72E700273E464FF0060A6DE7D1
:101A20002B4687E7B9F1000FD1D14FF02003EFF338
:101A3000118883F31288BFF36F8F238B23F0080381
:101A40002383258BEA062ED525F01003238305F08A
:101A500007056669218B002EBFF66FAF002327684C
:101A6000C4E9003321F0070141F001012183218BFA
:101A700001F0070AAA454FF000097FF43FAF002F9D
:101A80009BD041F00801218388F31188BFF36F8F49
:101A9000002FC7D03D68394633465246204603F0F2
:101AA000D9FC2F46F4E7AB067FF51AAF25F02003EB
:101AB000238305F00705FFE681540000014B036016
:101AC00000207047A071000070B5114B1C680D46D6
:101AD000DCB1104B196800238B4202DB6FF0010070
:101AE00070BD224612F8106B864202D001331446B4
:101AF000F2E7E06810B96FF01200F1E705F0E2F9E3
:101B00000028F8D02C600020EAE76FF00C00E7E72F
:101B10000C000020A071000070B588B005460C468E
:101B2000C0B269461646FFF7CFFF00281BDB0098BE
:101B3000C8B143680293836822680195CDE90336F2
:101B40000023CDE906230593C56803F03EFD6DB182
:101B50002846084901AA03F0DFFE079808B9059B4B
:101B6000236008B070BD6FF01500FAE76FF0120047
:101B7000F7E700BF6556000030BFFFF7FDBF00BFAD
:101B8000704700BF134B9A6A12F0007F9A6A14BF25
:101B90001E201D2012F0807F9A6A18BF1F2012F4A9
:101BA000002F9A6A18BF212012F4802F9A6A18BF5A
:101BB000222012F4003F9A6A18BF232012F4803FBB
:101BC0009A6A6FEA02426FEA12429A6218BF2420B0
:101BD000704700BF00ED00E010B5194B0246986A4F
:101BE0009C6A10F4805F14BF1720162014F4006F55
:101BF0009C6A18BF1820A40509D5986B986A000440
:101C000004D51AB19A6A22F400429A6219200C4B48
:101C10009A6A12F4806F9A6A18BF1A20D2050CD4FF
:101C20009B6A13F4005F18BF1C20054A936A43F4B3
:101C30007F43936200230B7010BD1B20F5E700BFAC
:101C400000ED00E010B51C4B0246986A9C6A10F04B
:101C5000100F14BF1120102014F0080F9C6A18BF39
:101C60001220A40709D5586B986A000604D51AB14A
:101C70009A6A22F080029A6213200F4B9A6A12F03D
:101C8000010F9A6A18BF142012F0200F9A6A18BF29
:101C90001520D40658BF9B6A074B9A6A920642BF2A
:101CA0005A6A22F400525A629A6A42F0FF029A6219
:101CB00000230B7010BD00BF00ED00E070B5444B79
:101CC0005B688AB00646C3F30803002585F31188D4
:101CD000BFF36F8F02F07F40B0F17F4F11D102F060
:101CE0000C0008280DD010074CBF0E46012500221D
:101CF000033B8DF80720032B05D8DFE803F01E5CBB
:101D000060592E46F3E700249DF807309BB9202246
:101D1000314602A803F000FD099B002D53D0C3F308
:101D2000080222B96FEA53236FEA4323099302A9F9
:101D3000204603F0B9FC0AB070BD254BDA6A910762
:101D4000E1D4DA6A002ADEDBDA6A5200DBD55A69AE
:101D5000B16942F480725A61BFF34F8FBFF36F8F46
:101D60005A6931F8021C22F480725A61BFF34F8F16
:101D7000BFF36F8F4DF60272914209D09A6AD2B2C8
:101D800042B10DF107010120FFF75CFF0446BBE7FC
:101D90003468B9E79A6A12F47F4F05D00DF1070154
:101DA0000120FFF719FFF1E79B6AB3F5803FAAD343
:101DB000FFF7E8FEEAE70DF107010020E4E70DF187
:101DC00007010020EDE723F4FF7323F00103ADE7E3
:101DD00000ED00E0024A536943F01003536170477D
:101DE00000ED00E0EFF30880EFF3098101B57246E2
:101DF000FFF764FF01BD00BF00F030FA202080F340
:101E0000118808484FF40061401880F30988EFF307
:101E100014800221084380F31488BFF36F8F00F011
:101E20006DF80000982700200749D1F89020002382
:101E3000C2F307221846934200DB7047C1F898307E
:101E4000C1F8A0000133F6E700ED00E01EF0040F3A
:101E50000CBFEFF30880EFF30980816911F8021CD1
:101E60000229FFD001B503F021FC01BD40B20028DA
:101E700007DB044A4109012300F01F00834042F8B8
:101E80002130704700E100E040B200280CDB43093C
:101E9000064900F01F0020330122824041F8232030
:101EA000BFF34F8FBFF36F8F704700BF00E100E0BB
:101EB000054B420900F01F0053F82220012303FACA
:101EC00000F01040704700BF00E100E040B2002881
:101ED000A8BF00F1604001F10101B8BF064B4FEA15
:101EE0004111ACBF00F5614000F00F00C9B2B4BFB2
:101EF000195480F80013704714ED00E00F4A08B53C
:101F00000F4B22F07F029A60BFF34F8FBFF36F8FAA
:101F1000D3F8882022F47002C3F88820EFF31483EA
:101F200023F0040383F31488BFF36F8F02F0DAFE0B
:101F300002F020FF00F030F802F0E0FE00000000A8
:101F400000ED00E004462025084611461A46084BDD
:101F500083F3098863B64FF0000383F31188BFF35E
:101F60006F8FA04785F31188BFF36F8FFEE700BF27
:101F700098570020014910220A60704710ED00E0D8
:101F800072B6494081F31188BFF34F8F20BF80F3B1
:101F9000118862B6704700BF044800232021C21890
:101FA0000133302B82F80013F9D1704700E100E0D3
:101FB00001B5EFF30580A0F110004FEAC00004491D
:101FC000014409C99847BDE801400249084700009B
:101FD000DC6F0000811B0000024B034A0348012113
:101FE00000F066B80000042000000020F47100003A
:101FF000084AC2F898000B6823F01F03034343F01C
:102000001003C2F89C308B6843F00103C2F8A03083
:10201000704700BF00ED00E02DE9F043DFF860807D
:1020200085B00E461F4604464FF00009B14523DA3D
:102030006068D8B13FB1411E08421BD11F2819D991
:102040002368194216D12368019303F03EFBA3686D
:1020500003430393D8F89050C5F30725D0B2013D50
:10206000A84207D801A9FFF7C3FF421C09F10109E3
:102070000C34DBE76FF01502104605B0BDE8F083C5
:1020800000ED00E0044B0522C3F89420BFF34F8F0E
:10209000BFF36F8F704700BF00ED00E0BFF35F8FAD
:1020A000024B0022C3F89420704700BF00ED00E00F
:1020B00010B5034C01232278FFF7AEFF207010BD4E
:1020C000942700202DE9FF41524B534CD3F8903018
:1020D0002568C3F307239D4200F29980FFF7DEFFD6
:1020E00000200C26854218D14C4C4D4F2570684677
:1020F000FFF7E4FCDFF81C8106460025AE4213D151
:10210000237844490020D1F89020C2F3072293425B
:1021100077DBFFF7B7FF00201CE0616806FB0011CA
:10212000FFF766FF0130DDE7009800EB05114FEA8D
:10213000051CCB683B40B3F5000F50D00DD8B3F56C
:10214000001F36D0B3F5800F3ED0B3F5801F13D0FB
:102150006FF0150004B0BDE8F081B3F1807F47D087
:10216000B3F1007FF4D150F80C3088684A6803F06E
:10217000ACFA40F4802009E050F80C3088684A68D6
:1021800003F0A3FA40F0885040F43020CDE9012359
:102190000390D8F890302078C3F30723013B98428E
:1021A000D6D801A9FFF724FF237801332370013526
:1021B000A4E750F80C3088684A6803F086FA40F0CB
:1021C000885040F40020E1E750F80C3088684A68F5
:1021D00003F07BFA40F0007040F40030D6E750F88E
:1021E0000C3088684A6803F070FA40F08270CDE7DE
:1021F00050F80C3088684A6803F067FA40F088703D
:10220000C4E7C1F89830C1F8A00001337BE74FF074
:10221000FF309FE700ED00E00072000094270020EF
:102220000000F0FF014B1860704700BF1000002055
:10223000044A0123C2F840354FF080420020C2F822
:102240007835704700E0014020B1034B800143F036
:1022500001031847704700BF7071000000F0C0BF55
:10226000084B70B5C31A0D4607499B1004465943E5
:102270000648402203F083FA2B4601462046BDE87B
:1022800070401847EC0D0020B76DDBB6786F00008A
:1022900073B50C4C0C4A4023041B00930D460B46AF
:1022A0000A49A41061430646094803F094FA011E46
:1022B00005DA30462B4602B0BDE87040184702B040
:1022C00070BD00BFEC0D002047580000B76DDBB6B5
:1022D000786F000010B54FF02003EFF3118483F303
:1022E0001288BFF36F8F074A136823F00201DB07E0
:1022F000116002D4012003F0B2FB84F31188BFF314
:102300006F8F10BD3C0E0020002270B501210446E5
:102310001046FFF7DBFD0F4801F0E6F80E4B984240
:1023200015D101F0F3F826690C49304603F0B6F8F0
:1023300000280BDB012535642469084904F11C00E1
:1023400003F0ACF8002801DBE564002070BD6FF0FD
:102350000400FBE7952300000000AD0B2072000095
:1023600070B501460C2309484B43C418D4E90E56F6
:10237000403300221844A26303F0EEF92DB1324637
:102380002B460348BDE87040184770BDEC0D002097
:10239000786F000010B1012804D07047034B1B6C0C
:1023A0005B0701D1FFF7DCBF704700BFEC0D0020D9
:1023B00008B54FF02003EFF3118183F31288BFF3C8
:1023C0006F8F124A136843F002001060DA0708D4D6
:1023D00081F31188BFF36F8F0120BDE8084001F041
:1023E000A7B84FF08043D3F80C24D3F80C34DB07A4
:1023F000EED5074803F0B0F981F31188BFF36F8F72
:102400000020BDE80840FFF7ABBF00BF3C0E002036
:102410002C0E0020F8B52549BFF35B8F064601223C
:1024200051E8003F41E800200028F9D1BFF35B8F5D
:1024300033B91F491F484B60CB608A6003F041F8F5
:10244000731E012B1DD804F068FD0446D0B91A4B49
:102450001B78BBB14FF080430222C3F80823054626
:102460004FF08047D7F81824D7F81834D20313D583
:102470009B0701D0012E0FD194B185F31188BFF3D2
:102480006F8FF8BD4FF02003EFF3118583F31288AF
:10249000BFF36F8F0124E3E72846FFF771FDE1E703
:1024A0004FF080430222C3F80423EAE7E80D00203E
:1024B000D80D0020080E00209627002008B50748F8
:1024C00004F000FD38B10648FFF7ACFE0448FEF703
:1024D000BFFF002008BD6FF01200FBE7B46F0000E3
:1024E000E52400000A2838B5074D044604D1AB683E
:1024F0000D215B6828469847AB6803485B68E1B2EA
:102500009847204638BD00BFB46F0000024B0B60F7
:1025100001231360704700BF400E00200048704741
:102520007472000010B503F026FB034C206003F02A
:102530001EFB6060002010BD400E00204FF0804266
:10254000D2F81015D2F8103501F01E0123F01F0348
:102550000B4343F00103C2F81035024B00221A70FE
:10256000704700BF952700204FF08053D3F83031DB
:10257000082B20D14FF08042D2F81015CB071AD586
:10258000D2F8103501F01E0123F01F030B43C2F8EF
:102590001035D2F808315BB1D2F8103523F01F03A3
:1025A0000B4343F00103C2F810356FF08B00704706
:1025B000024B01221A700020704700BF95270020AF
:1025C0002DE9F0410D46164603F0D1FA3146074693
:1025D000284603F047F928B3B5FBF7F307FB13537D
:1025E00003BBB6FBF7F407FB1464DCB9B74213D89E
:1025F00003F0BDFADFF834800746FFF7B5FF044665
:1026000068B9284601F01EFC98F800300BB1FFF7BE
:1026100095FFF61B3D44F0D12046BDE8F0816FF0F8
:102620008B04F9E76FF01504F6E700BF952700204B
:102630002DE9F8430E463046194617461C4603F06E
:1026400011F930B346EA040515F0030521D11CB396
:10265000DFF848906319032BA6EB050807D8104A4A
:10266000D2F80034DB07FBD50020BDE8F883FFF784
:102670007BFF58B97B1B4046196801F003FC99F8B1
:1026800000300BB1FFF75AFF043DE3E76FF08B001A
:10269000EBE76FF01500E8E72046E6E79527002016
:1026A00000E00140F0B54068057B01F01F0444EAFA
:1026B0004514056987B0002D64D0B2F5001F00F104
:1026C000100506D12146284603F049FA002007B03C
:1026D000F0BD01AE0027B2F5800F0197776039D1C8
:1026E000B3F1007F14BF052304238DF804300023C9
:1026F000CDE904630393836823FA01F111F001012A
:102700001AD1B2F1A07F17D104F01F03620903F5BB
:10271000E0732AD0012A3BD11F4A52F82330DB074D
:102720000AD40DF1030632462146284601F0EAF9A3
:102730001A4B98421CD0029603AA2146284601F063
:10274000A3F8174B984220D101222146284601F0D8
:1027500041FABBE7B3F1C06F05D0B3F1007F14BFFE
:1027600001230223C1E70323BFE74FF0A042D4E7D0
:102770003146284601F028FA094B9842DBD06FF029
:102780000B00A4E76FF08500A1E76FF015009EE74E
:1027900051F82330FFDE00BF000300500400AD0BF2
:1027A0000000AD0B38B545682B69B3B1103528462C
:1027B00001F0FAF9044680B90146284601F0BCF957
:1027C000084B98420BD108492246284601F094F95B
:1027D000224605210620FFF779FB002038BD6FF067
:1027E0000400FBE70000AD0BED270000420970B5C7
:1027F000034602D0012A17D070BD0D4E32695168D0
:102800000029F9D003F01F0301250C689D40002921
:10281000F2D08A682A4002D04B68304698472CB1E3
:10282000236821461C46F2E7024EE7E72346F8E715
:10283000A06F00008C6F00002DE9F043466840F265
:102840000635D006337B87B002EA050554BFC2F3D4
:102850004010032001F01F07B5F5837F144647EAB7
:1028600043178DF8030044D00FD8062D18D007D891
:10287000B5B1022D3FD06FF0150007B0BDE8F08371
:10288000B5F5807FF7D101250AE040F2022295429A
:1028900033D0B5F5407F32D0B5F5007FEBD10225BE
:1028A00022032ED5726801238B40C2F808353269A5
:1028B00092BB07F01F037F092BD0012F79D13F4A2C
:1028C00002EB830284F48033D2F80017C3F3004391
:1028D000C4F3404444EA430421F4E16144EA80043F
:1028E00021F0070144EA05230B43C2F8003700201A
:1028F000C3E70725D4E70425D2E70525D0E703255C
:10290000CEE7630341BF012372688B40C2F80C35E8
:10291000CDE74FF0A042D3E710360DF10202394661
:10292000304601F0EFF814F4403F80460CD13946B0
:10293000304603F012F9224B9845D8D19DF8021089
:10294000304601F03BF9D2E701AB4FF0000903AA92
:1029500039463046CDE90439CDE90199CDF80C90DE
:1029600000F092FF164B984285D114F4003315D035
:102970009DF803308DF80E3084F48034C4F30044A5
:102980004B4603AA394630468DF80C508DF80D4061
:1029900001F034F80A4B9842CDD06CE7CDE904330E
:1029A00003AA0DF1030339463046039300F06CFF90
:1029B000F0E703F5E07352F82330FFDE0003005028
:1029C0000000AD0B2DE9F04FDFF814C1DFF814E182
:1029D000DFF814810026F3B2994202D80020BDE846
:1029E000F08F50F82650EF04C5F3432405F07F0321
:1029F00066D47F2B4FEA15451EF8044008BF4FF000
:102A0000FF330C2D5FD8DFE805F0070D13165E5E6F
:102A10005E5E5E5E5E194500C2F80C355F1C3CD1FF
:102A20000136D8E7C2F814355D1CF9D000250DE059
:102A3000C2F80835F2E7C2F81035F5E7C2F80835F4
:102A4000002CF1D15C1CEBD00025062450F8269018
:102A500009F40057002F16BF0025AA464FF0010ABF
:102A600003F01F0B5B0928D0012B33D1674607EB1E
:102A70008B07C9F3C119D7F8003703EA080B230203
:102A800043EA89032B4343EA4A0343EA0B03C7F8AB
:102A90000037C5E7C2F80C35D2E75D090AD0012D31
:102AA00014D1E14603F01F07012505FA07F7C9F81D
:102AB0000875CBE74FF0A049F4E74FF0A047D6E701
:102AC0006FF015008BE76FF0850088E70023C3F8EF
:102AD0000835FFDE0BF5E07B002353F82B30F8E7D9
:102AE00000030050057A0000F0F8FCFF074BD3F814
:102AF000082142B10020C3F80801D3F80821D3F817
:102B000018350B7070474FF0FF30704700200040C1
:102B1000024BD3F88004C3F88004704700200040C3
:102B2000F8B50E4604F0F9F91A4D78BB6424012774
:102B3000BFF35B8F55E8003F002B03D145E80072DF
:102B4000002AF7D1BFF35B8F07D04FF47A70013CB6
:102B500004F0B3F914F0FF04EAD10F4C0023C4F8D9
:102B60001C31D4F81C310123A360C4F81C654FF458
:102B70007A76D4F81C3123B9012002F06EFF013EB1
:102B8000F7D10123E36000232B60F8BD01232B6004
:102B9000E3E700BF600E002000200040F7B55C4A6C
:102BA000436805690024C2F800451F68064601AA6B
:102BB0002146384602F031FF00280FDB019B3A68BE
:102BC00019791868FFF7FEFE002807DB6B79366974
:102BD000012B06D0032B03D06FF0850003B0F0BDAE
:102BE0001024AB79032BF7D1EB79002BF4D12979A1
:102BF00011B10229F0D10E212B68B3F5164F68D020
:102C00002BD8B3F5165F66D014D8B3F5966F64D0A1
:102C100008D8B3F5967F63D0B3F5167FDCD14FF4B7
:102C20001C3341E0B3F5166F5DD0B3F5965FD3D199
:102C3000384B39E0B3F5E14F58D007D8B3F5615FB1
:102C400056D0B3F5964FC7D1334B2DE047F612223D
:102C50009342C1D14FF4000326E0B3F5613F4AD05F
:102C600011D8B3F5963F48D008D84DF6C02293420C
:102C700045D0B3F5614FAFD1284B15E0B3F5E13F37
:102C8000AAD1274B10E0B3F5612F3BD007D8254AD6
:102C9000934239D0B3F5E12F9ED1234B04E0234A70
:102CA000934299D14FF08053194A0C43C2F824350E
:102CB000C2F86C4595E8030086E803000423002071
:102CC000C2F80035C2F80801D2F8083101231360B8
:102CD00084E7174BE8E7174BE6E74FF49E23E3E75B
:102CE0004FF4A033E0E74FF41D23DDE7124BDBE7A1
:102CF0004FF46C13D8E7114BD6E7114BD4E74FF4E0
:102D00006503D1E70F4BCFE74FF08063CCE700BFFF
:102D10000020004000B0130000A04E0000F0EB00C7
:102D200000E0D70190D0030000705F0740420F0021
:102D300000509D000050270000F0750000B0AF0368
:102D400000903A0100D0BE0E70B5012383400E4AB8
:102D5000BFF35B8FDC4352E8001F01EA040542E841
:102D60000056002EF7D1BFF35B8F4FF480328240C4
:102D70000648C0F80823BFF35F8FBFF36F8F0B4285
:102D800014BF0120002070BD680E0020001001401B
:102D900070B40E49D1E90034D01AC31844F10004CC
:102DA00022F07F46C1E90034A6F50013B3F5400FC9
:102DB00009D2074B1B681A0A1B069C19054B42F1E6
:102DC0000005C3E9004570BC02F034B8D80000200B
:102DD0006C0E0020E000002011B3BFF35B8F0123D5
:102DE000104A834052E800CF4CEA030C42E800C18D
:102DF0000029F7D1BFF35B8F0B4A4FF48033834038
:102E0000C2F80433094BBFF35B8F1B68BFF35B8FC2
:102E1000C340DB0742BF064B4FF40032C3F800212A
:102E2000704700BF680E002000100140640E0020B3
:102E300000E100E00D4B1868010A0006BFF35F8F48
:102E40000B4BD3F80435181841F10001B3F5801F7E
:102E50000AD2084BD3E90023904271EB030303D25B
:102E600010F1807041F10001704700BF6C0E00202E
:102E700000100140E00000202DE9F04F85B016461B
:102E80001F469DF840A00446FFF75EFF0190FFF744
:102E9000D1FFB04271EB070354D23E4B301A67EBBF
:102EA0000101984271F100014FD23B4B03EB041337
:102EB000D3E902239F4208BF96425ED037494FF4C0
:102EC000803804F1500508FA04F8AD00C1F84883D1
:102ED0002046ADB202F0B4FD26F07F4B05F18045EF
:102EE00004F5A87305F58835DC464FF00309029315
:102EF000029A2CF07F4341F82230C1F84483D1F884
:102F00000435274A6FF00200C01A604420F07F4069
:102F1000904232D9286868B1D1F804350393A3EB05
:102F20000B0020F07F40B0F5000F26D9204602F0BC
:102F300087FD039BBAF1000F07D109EB030C09F1E0
:102F40000109D5E7BAF1000F09D06FF01505204649
:102F50000199FFF741FF284605B0BDE8F08F012336
:102F6000104ABFF35B8FA34052E8000F184342E8BA
:102F700000010029F8D1BFF35B8F07490E982301A8
:102F800001EB0412C8500F9B5360C2E90267002591
:102F9000DDE700BF01008000C800002000100140F4
:102FA000FDFF7F00640E00207FB51C4C1C4BC4F855
:102FB0000833C4F848331B4B00254FF0FF304FF067
:102FC000FF31C4F80855C3E902014FF48033C4F857
:102FD0000433154B02264FF400320121C4F8046378
:102FE0001120C3F880212A46FEF770FF1120FEF75A
:102FF0003DFF0E4A0123A360236013600C4B0D4A72
:103000000093CDE9015500232846FFF735FF3046F0
:10301000FFF700FA284604B070BD00BF0010014061
:1030200003000F00C800002000E100E0680E00204F
:10303000912D0000FFFF7F002DE9F7432F4CD4F8BE
:10304000043399070BD5D4F8043143B12C4A00233B
:10305000C4F80431D4F80431136801331360D4F890
:103060000433DA032AD5BFF35B8F264B53E8002FD6
:1030700022F0010143E800100028F7D1BFF35B8F75
:10308000D30702D4D4F84031C3B10025C4F840516D
:10309000D4F84031FFF7CEFE4FF02003EFF311825A
:1030A00083F31288BFF36F8F174BD3E90267B042E7
:1030B000B94106D282F31188BFF36F8F03B0BDE828
:1030C000F0834FF0FF384FF0FF39C3E90289D3E9AD
:1030D00000101D604FF48033C4F84833C4F84051E9
:1030E000D4F8403182F31188BFF36F8F0029E5D007
:1030F000009032463B4628468847DFE700100140F3
:103100006C0E0020640E0020C800002030B5431C67
:10311000124C85B005D08442A8BF0446012CB8BF2C
:103120000124FFF787FE0E4B0C4DD3E90013401A24
:10313000B0F5000F10D22218AA4228BF2A46521812
:103140004FF0000007490091CDE9010043F1000371
:10315000FFF792FE05B030BD2A46F0E7FFFF7F0083
:10316000D8000020912D000008B5FFF763FE024B48
:103170001B68C01A08BD00BFD800002010B5084C5D
:10318000012363601120FEF77FFE064BC4F808336D
:10319000C4F84833044B4FF40032C3F8802110BD0B
:1031A0000010014003000F0000E100E04FF08053E9
:1031B000D3F83021082A06D1D3F83431052B02D8B0
:1031C000024AD05C70470020704700BF217A00009F
:1031D000024AD2F80034002BFBD0704700E00140D7
:1031E00010B54FF08053D3F83021082A4ED14FF05C
:1031F00080420021C2F80C11C2F81011C2F8381533
:1032000002F54042D3F80414C2F82015D3F808148C
:10321000C2F82415D3F80C14C2F82815D3F81014EA
:10322000C2F82C15D3F81414C2F83015D3F81814BA
:10323000C2F83415D3F81C14C2F84015D3F8201482
:10324000C2F84415D3F82414C2F84815D3F828144A
:10325000C2F84C15D3F82C14C2F85015D3F830141A
:10326000C2F85415D3F83414C2F86015D3F83814E2
:10327000C2F86415D3F83C14C2F86815D3F84014AA
:10328000C2F86C15D3F84434C2F87035FFF78EFFDE
:1032900018B13A4B3A4AC3F88C26FFF787FF18B1AA
:1032A000384BFB22C3F81825FFF780FF70B14FF0B1
:1032B00080414FF08053D1F8E42ED3F8583222F0F9
:1032C0000F0203F00F031343C1F8E43EFFF76EFF54
:1032D00020B12D4B4FF40072C3F840264FF08053BD
:1032E000D3F83031082B1AD14FF08043D3F80024A3
:1032F000D20744BF6FF00102C3F800244FF080539F
:10330000D3F83431052B02D8204AD35C3BB14FF0BF
:103310001023D3F808224FF08043C3F858254FF00C
:103320001023D3F80022002A03DBD3F80432002B49
:1033300022DA174901234FF01020C1F80435122476
:10334000FFF746FFC0F80042FFF742FFC0F8044213
:10335000FFF73EFF0023C1F80435FFF739FFBFF345
:103360004F8F0C490C4BCA6802F4E0621343CB60E8
:10337000BFF34F8F00BFFDE710BD00BF00500040FE
:103380004881030000F00040009002401B7A0000DA
:1033900000E0014000ED00E00400FA0530B50468EB
:1033A000CCB1BFF35B8FB4FA84F3C3F11F03DBB27C
:1033B00001229A4024EA020250E8005FA54204D1AB
:1033C00040E8002CBCF1000FF6D1BFF35B8FE6D1D3
:1033D00002480B7030BD0248FCE700BF0000AD0B97
:1033E0000200AD0B10B50368CB40DB0714D40123FA
:1033F0008B400268BFF35B8F43EA020150E8004F45
:10340000944204D140E8001CBCF1000FF6D1BFF398
:103410005B8FEED1014810BD0148FCE70000AD0B09
:103420000400AD0BF7B5044618B1012823D003B052
:10343000F0BD4FF080430222C3F808230122DA6076
:10344000C3F80401D3F80431064601238DF8073090
:1034500042F210754FF08047D4B1012CE7D1D7F874
:103460000C3403F48033AEBB83B3012002F0F5FAD1
:10347000013DF4D12AE04FF080430022C3F8080355
:103480005860C3F80021D3F800310DF10706DCE7DE
:10349000D7F8183403F480333EB9002BC7D001208D
:1034A00002F0DBFA013DF3D1C1E7D7F8182402F0AE
:1034B00003023260002BBAD09DF80700012803D127
:1034C00002F0CBFA013DC7D1012CB0D1054B00224F
:1034D0005A71ACE7D7F80C2402F001023270002BCD
:1034E000EAD1F3E7700E0020054B1A792AB99A71D8
:1034F000012218609A80034870470348704700BF54
:10350000700E00200000AD0B0C00AD0B08B5074B92
:103510001B682BB10020FEF7CBFC08B9FEF7A6FC18
:103520004FF080430022C3F8182508BD700E00201C
:1035300010B510B1012840D010BD4FF08043D3F832
:103540001814D3F81824CC031ED5900702D00020FD
:10355000FFF768FF4FF080430022C3F818250220D0
:1035600008224FF4827303F180430021196002F1B5
:1035700080421C6801241460154A12680AB34FF097
:103580008043C3F80403D7E7D3F81424D107E1D567
:10359000D3F81C249207DAD10D4A12681AB102221C
:1035A000C3F80423C8E7D3F80421002AFBD0002283
:1035B000C3F80421D3F80431BEE700224FF480732E
:1035C000D1E71A68002AFCD019601B68B4E700BF75
:1035D000700E002010B54FF08043D3F800216AB17F
:1035E0000022C3F80021D3F800210122C3F80823E8
:1035F000184B587910B95A711B6898474FF080439F
:10360000D3F804215AB10022C3F80421D3F80421CD
:103610000222C3F808230F4B01201B6898474FF084
:103620008043D3F80C21A2B1D3F80423120710D59C
:103630000022C3F8342CC3F80C21D3F80C11082154
:10364000C3F80813034B9A71BDE810401B680420AF
:10365000184710BD700E0020036803F01F025B09BD
:10366000026004D0012B034818BF002070474FF0C0
:10367000A040704700030050034A430900F01F00B8
:10368000D35C1844C0B27047277A000070B5054675
:10369000FFF7F2FF0C4C08300E4634F81030DA0514
:1036A00008D5C3F3432304EBC302284654F8333050
:1036B00052689847A3682BB1E26831462846BDE8B6
:1036C0007040184770BD00BF1C00002008B5FFF710
:1036D000D3FF034B083033F81000400B08BD00BF88
:1036E0001C00002008B5FFF7C7FF034B083033F874
:1036F0001000C0F3400008BD1C00002008B5FFF713
:10370000BBFF034B083033F81000C0F3401008BD76
:103710001C000020034611F0010010B5CCB20DD101
:10372000A207C4F3400012D5094AD2F82005586018
:10373000C2F82005003818BF012008E04FF0A04172
:10374000D1F820251A60C1F82025002AE8D010BD44
:103750000003005010B5FFF78FFF124A083032F80F
:103760001030D9051CD5C3F3432123F4F85322F8B4
:10377000103002F10E04002034F8023F13F4807F71
:1037800003D0C3F3432399420AD001303028F3D148
:10379000002342F831300448BDE81040FFF722BE54
:1037A00010BD00BF1C00002094000020F0B50546AD
:1037B00000200446012607468C420BD1114BD3F85A
:1037C0007C2132B10022C3F87C21D3F87C3140F057
:1037D0000040F0BDE3B29B0003F580729B0806FA3F
:1037E00003F31D420BD002F1804202F5C042D2F831
:1037F00000C0BCF1000F02D01760126818430134FA
:10380000DAE700BF00600040F7B506460846FFF75C
:1038100033FF194F00F108050C4637F81530DB0768
:1038200027D5304602F075F92046FFF767FF40B113
:103830002046FFF74BFF316800F5A270002341F8E6
:1038400020302046FFF786FF002301A827F8153017
:103850000194FFF701FF019B00EB8300074BD0F8B9
:103860000027134043F00203C0F80037044803B0B8
:10387000F0BD0448FBE700BF1C000020F0F8FCFF8F
:103880000000AD0B0400AD0B2DE9FF41164680464C
:103890000846FFF7F1FE0D463168044609B3284695
:1038A000FFF720FF18B12846FFF728FF10BB0023C1
:1038B000CDE900338DF80E308DF80F300DF10F0289
:1038C0000B4628460DF10E0102F0CBF8474A04F1F1
:1038D000080132F8113023F0020343F0010322F80B
:1038E0001130736863B328461F785968FFF7FAFEF2
:1038F00010B1D1B13E4826E03C4A04F1080032F84C
:10390000103023F02003DB04DB0C22F8103061B10F
:10391000032FEFD87168496891F800C0D8F80010FB
:10392000A7B90CF5A27C41F82C70304A04F10801CB
:1039300032F8113023F01C0343EA870322F81130D8
:10394000B3684BBB2B4804B0BDE8F08101EB8C01A0
:1039500043EA4C33D1F810E52EF0030EC1F810E520
:10396000D8F8001001EB8C0E43F02003DEF81015A0
:1039700022F8103021F44F3121F44071CEF81015A7
:103980002902DEF8108501F47C5141EA074141EA41
:103990000801CEF81015C8E7D3E900672846FFF7FD
:1039A000D9FE002ECED0114DD5E90023964203D189
:1039B0009F4201D1002209E00F480DF10F01FFF7EE
:1039C000EDFC0C4B9842BED19DF80F2045F83260BB
:1039D00005EBC20308345F6035F8143043EA422334
:1039E00043F4807325F81430ACE700BF1C000020BE
:1039F0000400AD0B0000AD0B940000202DE9F04356
:103A00000C4685B08046204611461E46FFF734FE20
:103A1000054629B32046FFF765FE18B92046FFF793
:103A20006DFE18BB314F05F1080937F8193013F056
:103A30001C0F02D04B78012B18D001238DF80F30CA
:103A40000023CDE900134A1C8B1C20460DF10F0109
:103A500002F007F837F8193043F0030327F819305C
:103A6000002E41D02046FFF73DFE18B9204805B092
:103A7000BDE8F08396F800C0D8F800301B4F0CF575
:103A8000A272002143F8221005F1080237F8121043
:103A900021F02001C904C90C27F8121075781DB354
:103AA000D8F80000B67800EB8C002D04D0F8103563
:103AB00023F4991323F4F853C0F81035230203F4C8
:103AC0007C5305F440353605D0F810E52B4306F459
:103AD000801641EA4C31334341F0200143EA0E03A2
:103AE00027F81210C0F810350248C0E71C0000206B
:103AF0000400AD0B0000AD0B014BC3E9021270478F
:103B00001C00002010B508461446FFF7F7FD50B121
:103B10000846FFF7B1FD054B083033F81030044874
:103B20005B0B237010BD0348FCE700BF1C000020A6
:103B30000000AD0B0400AD0B70B5184E96F8804038
:103B400005464CBB2146602206F1100001F0EFFD56
:103B50002D68306F2146884212D10023C5F87C3190
:103B600045F30730D5F87C31FEF780F94FF000437C
:103B7000C5F804330A48012386F88030B36770BD66
:103B8000CBB29B0003F580727C2B08BFAC5001F1D7
:103B9000010108BFAB58DEE70248F0E71C00002037
:103BA0000000AD0B0C00AD0B034B93F88000003808
:103BB00018BF0120704700BF1C0000200148FFF71C
:103BC00011BC00BF900000200148FFF7E7BB00BF19
:103BD0009000002073B5054608460C461646FFF7D0
:103BE0008DFD00B30846FFF77DFD0146D8B920469C
:103BF000FFF76CFD04B2A40004F580720346286848
:103C00008150296882582144D1F8102542F00102E0
:103C1000C1F810252EB12968012202FA03F3C1F878
:103C2000043302B070BD2046FFF726FD0F4B08306D
:103C300033F81030C3F38203042B12D0052B12D0BB
:103C400001A80194FFF708FD019AD0F81035D34080
:103C500003F00103991C204602B0BDE8704001F05A
:103C600049BF0321F7E70221F5E700BF1C00002050
:103C70002DE9F04F694BDFF8A881D3F80403D8F899
:103C80007010C0B289B040F00040FFF78FFD051EF4
:103C90002FDAC24600235AF87C1F06A8CDE9063366
:103CA000FFF738FD5F4B01930DF118094FF0000B42
:103CB000019A12F8013B0192DA0803F007031AF89F
:103CC000022022FA03F3DA071CD409F10409BBF13C
:103CD000000F14D0D8F870104FF00040FFF766FDC9
:103CE000D8F87C1006A8FFF715FD0028DAD125F0DA
:103CF00000450124002D79D109B0BDE8F08F4FF0C7
:103D0000010BD5E7484B5B440293D9F8001000291A
:103D1000DBD0029B91FAA1F11C78B1FA81F141EA62
:103D200044142046FFF7A8FC0830059438F81070BA
:103D3000C808BB0819F80020039301F0070101230C
:103D400003FA01F122EA010209F8002005A8FFF7B1
:103D500083FC059A039B02F5E072C7F3820650F8D4
:103D600022205B073746C2F3014224D5204639465C
:103D7000D6B2FFF78BFC05A80594FFF76DFC059BF9
:103D800003F5E07350F82330C3F301439E4207D19B
:103D90000021204601F0AEFE3146204601F0AAFE89
:103DA00005A80594FFF758FC059B012202FA03F3CE
:103DB000C0F82035A9E7022A0CD10321204601F0E2
:103DC00099FE06F00503012BEAD139462046FFF79C
:103DD0005DFCE5E702212046039201F08BFE032EF5
:103DE000F3D0039A032ADBD1022EEDE795FAA5F36F
:103DF000B3FA83F304FA03F29B0003F1804303F563
:103E0000C04325EA0205D3F81005D3F81015C0F316
:103E10000520C1F30141FFF739FC6BE7006000406A
:103E20001C000020377A0000377A0000044AD2F8DC
:103E30000034DB07FBD50160BFF35F8F704700BF25
:103E400000E001404FF080531A69B0FBF2F302FB2F
:103E5000130373B9084B0222C3F80425C3F80805FD
:103E6000D3F80024D207FBD500220448C3F8042568
:103E700070470348704700BF00E001400000AD0BF1
:103E80000A00AD0B10B5054C0123C4F80435FFF74B
:103E9000CDFF0023C4F8043510BD00BF00E0014091
:103EA000044B1B68584043085B4240421843C0170C
:103EB000704700BF780E00208842F0B504D0094F4B
:103EC00004380025AA4200D1F0BD3E6850F8044FE6
:103ED0005E4024EA060451F825601E403443046025
:103EE0000135EFE7780E0020044B1B68584043086B
:103EF0005B4240421843C017704700BF780E002055
:103F0000F8B50E46C9880546144602F0FAF8074689
:103F1000D0B92046FFF7E8FF104B1A68B5F9043016
:103F2000424023EA0203B6F9042002401343AB8067
:103F300004460346F28831682868FFF7BDFFF3881E
:103F4000E443EA88934201D33846F8BD296851F822
:103F50002320224041F823200133F2E7780E00208D
:103F60002DE9F047DFF83CA00746884616469946FB
:103F70000024DAF80050DAF800305D4085EA0905DF
:103F800085EA0400FFF7B0FFC243D2B208EBC401D8
:103F90003846FFF7B5FF10B90134A642E9D1BDE8B4
:103FA000F08700BF780E00202DE9F04F99B08346CE
:103FB0000F46184600211646039302F005FA002822
:103FC00000F08981784B14930024012515AB0399E7
:103FD00013933046CDE90B45CDE90D45CDE90F45AD
:103FE000CDE9114502F079F9A04228DABBF1000FC2
:103FF00005D1E7B90024204619B0BDE8F08F21466D
:10400000584602F0F2F804460028F2D00BA802F05D
:104010006AF80DA802F067F80FA802F064F811A87A
:1040200002F061F80C2115A800F02CFBE3E7314603
:10403000384602F0A5F804460028E7D1DAE7314611
:104040000BA802F09DF804460028DFD103990DA8C3
:1040500002F096F804460028D8D1F188ADF838501F
:1040600002310FA8ADF8305002F04BF8044600289A
:10407000CCD101460FA802F0B8F804460028C5D1FB
:10408000F18811A8023102F03CF804460028BDD1A5
:104090000DA802F0D6F800F01F001F2873D0C0F161
:1040A0001F0319460BA8019302F0F1F804460028FB
:1040B000ACD101990DA802F0EAF804460028A5D178
:1040C000BDF83250BDF83A80A5EB080A4FEA4A190C
:1040D00049460DA802F0DBF80446002896D14FEAC5
:1040E0008A0A0DA90BA802F027F900284DDA4946E3
:1040F0000DA802F0E9F80446002887D108F1FF3343
:1041000005939B0005F1FF3A069305F1804508F100
:104110008043023B013D9B00A5EB08050893AB00E3
:104120000293059B9A4541D8BBF1000F0DD00FA912
:10413000584602F025F8002840F0C980039AB38859
:10414000928813FB02F3ABF80430002F3FF45EAF0C
:1041500001990BA802F0B8F8002840F0B880B388A5
:10416000ADF830300BA9384602F00AF801460028B5
:1041700040F0AF80384602F027F900287FF446AFC0
:104180000123BB8042E701949AE70F9A52F80A3064
:104190000BA9013342F80A3008460DAA02F0FAF9D9
:1041A000044600289DD031E7010003000D9B069ACC
:1041B00004931344DDF82C900793049B59F82A10BC
:1041C0009A580F9D4FEA8A08A8F104030993029BAD
:1041D00091421D4476D2A8F10400002359F8000052
:1041E000FBF78EFF002914BF4FF0FF330346BAF1EF
:1041F000010F2B6016BF09EB0803002353F8083C9E
:104200001593A8F1040359F80330169359F80830B0
:1042100017932B68DDF8108001332B60089B9844BE
:104220002B68013B2B60002111A801F0DEFF002864
:104230004DD1059B002B48D0D8F80020119B1A6067
:10424000079A12685A6011A92A68084602F0A6F96E
:1042500000283CD113A911A802F06EF80028DFDC79
:104260002A680DA911A802F099F980BB029B4FEAB8
:10427000C308414611A802F00AF840BB0BA9084642
:1042800011AA02F087F9014618BB0BA802F09CF8AE
:10429000002812DA0DA911A801F072FFB8B9414641
:1042A00011A801F0F4FF90B90BA911AA084602F079
:1042B0006EF960B92B68013B2B60029B0AF1FF3A53
:1042C000043B2DE74FF0FF3391E7059AB6E704462C
:1042D0009CE60C469AE66FF00B048CE62DE9F84F4D
:1042E0009246194A1568454006460F46ED43002B95
:1042F00014BF9946894600240A9B04F104084345EB
:1043000004D20A9B9C4214D3BDE8F88F0AEB040048
:1043100002F0A7FB00EA060B09EB040002F0A1FB88
:1043200000EA050141EA0B01381902F0A5FB4446F9
:10433000E2E71AF8043019F8042033402A40134306
:104340003B550134DDE700BF780E0020082804D07B
:104350000928034818BF002070470248704700BF73
:10436000397A00003C7A000001680E4A9142034607
:1043700015D1C169A2F11022A2F1EF1291420ED122
:104380008268012A0BD8C26812B101698A4206D03C
:10439000586928B19B691B1A58425841704701203F
:1043A000704700BF55AA00FF70B50D4B9E68A6B1BF
:1043B0003046FFF7D9FF044678B9F3686BB9356921
:1043C0000DB9204670BD2846FFF7CEFF28B9EB682F
:1043D000B34202D12E462D69F2E70124F1E700BF76
:1043E0007C0E00202DE9F8433F4F3C68D4B1BC68F7
:1043F000C4B100284AD0002948D001FB00F5B5FB24
:10440000F0F0884242D1281D40D8A9070DD025F0F0
:1044100003060436FC6803E06368B34238D2A4693B
:10442000002CF9D12046BDE8F8832E46F2E7FB6068
:1044300041E006F120016318203A5A600022C3E9E6
:1044400002242A4822691A6160502949D96102B1BF
:10445000D36062695A61A1699961AAB193619A694D
:1044600002B153614FF00109C4E9016923610023DE
:10447000C4E905333B69DB072ED5FFF795FF58B339
:104480001C4B48461B6826E0FB60E8E70024C9E7B0
:10449000A3681BB1174B01201B6898476268921BE9
:1044A000232A04F12008C4D80123A360D4E90523FA
:1044B000002ABCD09361A3690BB162695A610023E1
:1044C000C4E905333B69DA0706D5FFF76DFF18B17C
:1044D000084B1B68012098472A4600214046444665
:1044E00001F025F99EE700BF7C0E002055AA00FFD1
:1044F000669911EEA400002070B50546002800F072
:104500008880444E3368002B00F08380B268002A14
:104510007FD0834203D872681344984203D33E4B42
:1045200001201B689847A5F120042046FFF71CFFD7
:1045300018B1394B01201B68984755F8183C012BDE
:1045400003D0354B01201B689847002345F8183CE1
:1045500055F8143C3BB39A682ABB55F81C2C02F161
:1045600020015A680A445A6055E905321A6155F823
:10457000145C2B6903B1DD6020220021204601F08C
:10458000D6F8286910B18368002B2ED033699B07B9
:104590003FD5FFF709FF00283BD01F4BBDE8704017
:1045A0001B680120184755F8100C00282AD0836892
:1045B00043BB42686368134420336360036923612B
:1045C000D4E905239AB9CBB9436963618269A261D1
:1045D000B3B19C61A36903B15C61236903B1DC6081
:1045E0002022002101F0A3F8D0E72C46E1E79361F7
:1045F000A369002BE8D062695A61E5E7F360F7E749
:10460000F460E7E7F36845F8083C03B15C61F460E7
:10461000BCE770BD7C0E0020A400002038B5142239
:104620000C4605460021134801F081F81249134851
:1046300000F040F8232C1CD915F003031FBF043CE5
:10464000E418C3F10403ED1822460021284601F0C6
:104650006EF8084B0A499D60C3E90054203C6C6029
:104660009A6811609A68DA60A1F11021A1F1EF1146
:10467000D16138BD7C0E0020F9440000E543000004
:1046800055AA00FF10B50A46044619B1024B002195
:104690001B68984710BD00BFA0000020014B1B689D
:1046A000184700BFAC000020014B1B68184700BF33
:1046B000A8000020024B1860024B002019607047D0
:1046C000AC000020A8000020F8B500F108064768FB
:1046D000044630460D4601F0B8FD87424BD1636871
:1046E000B3F5807F47D80021304601F06DFE0028E9
:1046F00041DD0021304601F094FDE0B345B9294683
:1047000004F1100001F060FE002834DD0020F8BD47
:1047100004F120050021284601F056FE00282ADD7C
:104720000021284601F07DFD28B304F12805002171
:10473000284601F049FE00281DDD0021284601F031
:1047400070FDC0B1002104F1100001F03DFE002811
:1047500011DD002104F1300001F036FE00280ADDF1
:10476000002104F1380001F02FFE002803DD0021B4
:1047700004F14000C6E70148C9E700BF80BFFFFF62
:10478000012938B50546144601D0074838BD22B97D
:104790000123C5E91C340020F8E71046FFF7D6FDD9
:1047A0000028F5D1F1E700BF00BFFFFF70B5002181
:1047B0000446FFF789FF054610B10E4D284670BD2F
:1047C00004F10806304601F03CFD7F28F5D910348D
:1047D0002946204601F025FD0028EED0204601F0B4
:1047E00030FD0128E9D93146204601F0A5FD002819
:1047F000E4DBE2E700BEFFFFF0B50C4685B0002128
:1048000005461646FFF760FF002839D102A801F0DF
:1048100065FC21466A6802A801F01DFD044618B136
:1048200002A801F060FC0CE005F10804214602A892
:1048300001F082FD002807DB02A801F054FC6FF0B4
:104840000304A4F5854418E005F1480302A96F6844
:10485000009305F110022346084601F002FF0446CA
:104860000028DDD13A46314602A801F00AFD04468F
:1048700002A801F038FC002CE3D1204605B0F0BDC1
:10488000004CFAE780BFFFFF01292DE9F041034604
:1048900041D8224A224F2348234E244D244C996666
:1048A000002918BF9046234A18BF964602F1794264
:1048B00002F5740202F5016218BF94461E4A18BF41
:1048C00017461E4A18BF164602F1D14208BF80465D
:1048D00002F5C0121A4802F51E620CBF8646154644
:1048E0001848194A0CBF844614461848A2F11162B0
:1048F000A2F50C22A2F28E2218BF02460020C3E9C4
:104900001000C3E9128EC3E914C7C3E91665C3E9F1
:104910001842BDE8F0816FF07300FAE7D89E05C138
:104920003AF54FA567E6096A7F520E518C68059BE0
:10493000ABD9831F07D57C3639590EF7310BC0FF31
:1049400085AE67BB72F36E3CA78FF964A44FFABEC5
:104950002DE9F04FCDB000F1640300F144070DF5EF
:104960008679009301914A463B4653F8041F42F86A
:10497000041F00999942F8D102ADDFF800A14FF071
:1049800000082C46B8F10F0F61D8019B03EB88009B
:1049900002F067F802F010F90146A960D4E9476314
:1049A000D4F818015AF804CB73404FEAF022D4F837
:1049B000206182EAB012034082EA706273401344BD
:1049C000D4F82421D4F81061134463440B44D4E98F
:1049D000421E4FEA713C41EA0E0232408CEAB10CB1
:1049E00001EA0E0B42EA0B028CEAB15C9444D4F863
:1049F0001421D4F82061C4F824611A44D4F81C614D
:104A0000C4F8182108F10108D4F81021C4F804C032
:104A10006344B8F1400FC4E94706C4E944E2C4E97D
:104A20004231236005F10405ACD157F8043F59F831
:104A3000042F13443B60009BBB42F6D102A84FF405
:104A40009471FFF71FFE00204DB0BDE8F08F2B687A
:104A500055F8382C55F8340C4FEAF34181EA73418C
:104A600081EA932155F8143C134419444FEAB043AA
:104A700083EAF01383EAD00319448EE7FC72000046
:104A800030B5816885B0103921F00704054600F083
:104A9000E2FD10220146684600F049FE0749102257
:104AA000684600F039FE10236A462146284600F089
:104AB000A2FD003818BF012005B030BD1C740000F5
:104AC00030B50D46816887B0102302AA103904461C
:104AD00000F07CFD002802DA012007B030BD102272
:104AE00002A9204602F04AF900283AD11E491022B4
:104AF00002A800F001FE00280CBF012302232B7046
:104B0000204602F027F9012301460DF10702204655
:104B100000F05CFD0028DFDB9DF8073003F00F029A
:104B20001B096A702B7101220DF10701204602F06A
:104B300025F910B96B78042B03D901236B7000237E
:104B40002B71A268183A22F00702083AA91C2046E5
:104B500002F027F90028BFD1E91C204602F07AF9BB
:104B6000BBE70323CBE700BF1C740000F0B5354F53
:104B7000460085B00546694657F8260002F070F9F0
:104B8000044610B1FF2005B0F0BD013602A957F868
:104B9000260002F065F9012837D12B482A46492121
:104BA00000F006FD294B02938DF80C409DF8006043
:104BB0009DF80870264C00222078314602F0D0F88B
:104BC00050B36078394602F0CBF828B3A378042BB1
:104BD00003D09DF8031099421ED1E378042B03D033
:104BE0009DF80B10994217D12379042B10D16279CB
:104BF000022A1DD1174B18482A46492100F0D8FC3B
:104C00006079831E022BBED9BCE70028CED0B9E75D
:104C10009DF802109942EAD00132032A04F10604F9
:104C2000CAD10E482A46492100F0C2FC0120AAE759
:104C3000032A05D00A4B0B49042A08BF0B46DAE7C2
:104C4000094BD8E7FC730000627A000003010303FC
:104C5000F77A0000447A0000AD7A0000D17A0000B3
:104C6000497A00005B7A00003F7A0000104B70B573
:104C700053F82040013053F82060A64200D870BDA0
:104C8000D4E9003595B153B12846984738B100288A
:104C9000B8BF4042EB68FF28A8BFFF201870EA6841
:104CA000537843F0010353700834E6E79847FBE775
:104CB0000474000008B5094B012203201A70FFF7A5
:104CC000D5FF00F01FF90420FFF7D0FFFBF782FBB0
:104CD000034A137B23F00103137308BD96270020BA
:104CE000E800002008B50348034A0021121A02F028
:104CF00010F908BDC80000209827002008B5002042
:104D0000FFF7B4FF184B83F30888184C636943F42A
:104D1000007363610025E02384F82230E57725766F
:104D20006576A57684F82050636A43F4E0236362D5
:104D300084F82350FDF74EF8FDF71CF94FF0FF33D0
:104D4000A362E362FDF7BEF9FDF746F902F0B9F898
:104D50000120FFF78BFF0220FFF788FF04482B4656
:104D60002A462946FDF7EEF8982F002000ED00E0D6
:104D7000B54C000008B50648064A0749121A02F069
:104D8000CAF8BDE80840054A0549064802F0C3B81C
:104D900000000020C2000020447B00000000000052
:104DA000447B000000000020034B1B680BB9FEF79A
:104DB000DBB90020704700BF900E002010B50E4BED
:104DC0001C689C4204D1FFF7EFFF6FF0004010BD5C
:104DD000FFF7EAFF002CF8D0D4E904321B1A62EB8B
:104DE000E072B3F1004F72F10001EEDA002AACBFBD
:104DF00018460020EBE700BFB000002030B570B1CE
:104E00000B4B5B6898420AD0036843B1D3E9042195
:104E1000D0E90445121941EB0501C3E90421D0E9A9
:104E2000003213605A600023C0E9003330BD00BF78
:104E3000B00000202DE9F84F4FF02003EFF3118C64
:104E400083F31288BFF36F8FDFF8ACA0DFF8AC906C
:104E50002B4FC9F80000DAF800000024504508BFC5
:104E600000200025D7E90021D9F80030E04680B3C2
:104E7000D0E9046C4FEAE37EB3427EEB0C0B05DA1B
:104E8000F61A6CEB0E04C0E9046422E0B21841EBA0
:104E9000E671C0E90445C7E90021FFF7AFFF88F3D9
:104EA0001188BFF36F8F836898474FF02003EFF3AB
:104EB000118883F31288BFF36F8FD9F80030DAF8C6
:104EC00000009B1B5045C446C9F80030CAD1D7E941
:104ED00000219A1841EBE3730024C7E90023C9F8C5
:104EE0000040FFF76BFF2146FEF710F988F31188A9
:104EF000BFF36F8FBDE8F88FB0000020900E002048
:104F000068010020014800F06CBA00BF097B000076
:104F100070470020704730B583688B4285B00446E7
:104F200015460ED96368C068194401AA00F0F0FC68
:104F300028B96268019B9B1A2B60029B6B6005B0CD
:104F400030BD6FF02100FAE72DE9F7430E46174612
:104F50009946044628B94FF0FF38404603B0BDE8F3
:104F6000F0830029F7D0002AF5D0CB680D891D44C5
:104F700004230DEB03022946384600F027FB804648
:104F80000028E8D1BDF80410738946F60812914252
:104F900025D1BDF806109942DDD104230DEB0302A3
:104FA0002944384600F012FB0028D4D1BDF8042073
:104FB00046F607139A42CED1C4E900679DF828301F
:104FC000A4F80890A3727389BDF806202B44E3600F
:104FD000738913442B44043563612561BDE7002BBD
:104FE000E4D0B8E72DE9F3410E4617461D460446C6
:104FF00020B94FF0FF3002B0BDE8F0810368002B0C
:10500000F7D04368002BF4D04FF6FF78D4E904239F
:105010009A4216D223685B8923B1E368934204BFA6
:10502000043323610423216960680DEB030200F05F
:10503000CDFA0028DDD1A37A2BB1D4E903329A420C
:1050400001D30120D7E72389BDF80610434501F1BC
:10505000040203D0BDF804C09C450BD115B1BDF8C6
:1050600004302B802369043333603980236913446F
:105070002361C0E7236913442361C7E700F03CBB09
:105080004FF4C07358433030704710B5044600F0F9
:10509000DBFAA3684FF4C072303B02FB103010BD46
:1050A00070B50D46044601F055FE2A46A0F10801F0
:1050B00004232046BDE8704000F088BA13B50446CA
:1050C000019101F047FE0423A0F108010DEB03025A
:1050D000204601F082FE02B010BD70B513460E46A8
:1050E0001546002102460446FBF7C4FE50B92B4684
:1050F00004F12C0201212046FBF7BCFE10B1002E6A
:1051000008BF002070BD73B5044600200D4616464A
:10511000FBF7D0F96946C0B2FCF7D6FC30BB2C23B4
:1051200003FB05440098E36825891D4404230DEB27
:105130000302294600F04AFAC0B9BDF80420648988
:10514000009846F608139A4215D1BDF806309C42E5
:105150000CD104230DEB0302611900F037FA28B9D2
:10516000BDF8042046F607139A4207D0009800F0D5
:105170002CFA02B070BD002CF2D0F7E7BDF8061093
:10518000214429443160F1E737B50446426A80255D
:1051900001A901200195FCF7BFFC58B9019B226DC4
:1051A000A36201A902200195FCF7B6FC054628B1CF
:1051B000092500E00125284603B030BD019B206A87
:1051C000636500F041FAE065F5E70123036003F150
:1051D000012343600023C0E9023370474379012B68
:1051E00007D10368012B04D10079431E584258416E
:1051F0007047002070477FB506460D46012001A983
:10520000FCF762FC38BB0198FFF73FFFF16D0446E5
:10521000284600F0D1F80444019800F015FA06463B
:10522000019800F018FA082201460DEB020000F088
:105230007EFA2B798DF8083021460198334602AA70
:1052400000F0D9F9041E019818BF012400F0BDF93F
:10525000204604B070BD0124FAE700F0E1B92DE961
:10526000F8430E46002107460846FBF723F90121C3
:1052700004460020FBF71EF933789C4221D0984267
:1052800021D101252C2303FB0575F86DAC6AFFF7CE
:10529000F7FE013C07464FF000086B6A03EBC402BF
:1052A00053F83410D2F804901B684A46C91A3046A5
:1052B000C844FFF7D2FFB84504F1FF34EDD3BDE891
:1052C000F8830025DEE70120F9E737B515460C46DF
:1052D0000220694601F0C4FDE979012903D00022CA
:1052E000204601F0D1FD9DF80330012B02D120466C
:1052F00001F0A9FDA9682046FFF7E0FE2046FFF770
:10530000BFFB002003B030BD73B50D460646FBF76A
:10531000B7FE0446E86058B302282ED101A9012047
:10532000FCF7D2FB58BB01982A463146FBF708FE32
:105330000446D0B9019801F00DFD012301460DF19D
:105340000302019800F042F90446A0B90198012235
:105350000DF1030101F012FD10B101238DF80330AE
:105360009DF8033003F00F03EB71019800F02DF965
:10537000204602B070BD0124F7E70724F8E70124B6
:10538000F6E738B5436A0446C06D5D68FFF778FEFE
:105390000246A06A002301382B449A4201D9013801
:1053A000FAE738BD436A00205A68034613448B422B
:1053B00000F10100FAD3704710B543790279012B4F
:1053C00014BFCB01002302F1FF3201FB023302685C
:1053D00014BF4C000C46013A04FB023010BD002003
:1053E00070470FB407B504A951F8040B0191FCF7FD
:1053F00021F803B05DF804EB04B07047038B13F0A1
:10540000070305D10368002B0CBF00200320704761
:10541000022B05D1408BB0FA80F040098000704724
:10542000012B05D10368002B0CBF0020052070471D
:105430000020704710B50C4600B111B96FF015008F
:1054400010BD081D00F095F80028F9D1A368032BC2
:10545000F6D9F3E72DE9F0410D4607461946281D18
:1054600090461E4600F096F8044638B13346424650
:1054700029463846A446BDE8F0416047BDE8F081C2
:1054800010B44FF02004EFF3118284F31288BFF3BD
:105490006F8F416110BC0121FCF702BA38B50C4690
:1054A000054658B151B10B6843B14B6833B11C226A
:1054B000002100F03CF92C61002038BD6FF0150090
:1054C000FBE770B505460E46FFF7B4FF041E15DB7B
:1054D0004FF02003EFF3118283F31288BFF36F8F35
:1054E0006B8B2C8B4FF6FF718B4204F0070407D1B6
:1054F00082F31188BFF36F8F6FF00A04204670BDEE
:10550000022C0CD101336B8382F31188BFF36F8FB0
:105510000023224631462846FFF79CFFEEE7062C83
:1055200014D8DFE804F004131313041A0400002352
:1055300033606B683BB9C5E90066ACB90221284607
:10554000FCF7AEF9DAE71E606E60F6E782F31188C9
:10555000BFF36F8F6FF00404D0E782F31188BFF3BD
:105560006F8F6FF08504C9E782F31188BFF36F8FE7
:10557000C4E7034658B1426802F00302012A03D08F
:10558000032A04D1026812B10020986070476FF0BE
:10559000150070474268816002F00302032A4FF051
:1055A000000203460CBF006810465A6070477047FF
:1055B0000FB407B504A951F8040B0191FBF73AFFAA
:1055C00003B05DF804EB04B070477047002930B4B5
:1055D000044618460BDBA5680844A84207D8E068D3
:1055E0006468214484682468A44630BC60476FF036
:1055F000150030BC7047002930B4044618460BDB58
:10560000A5680844A84207D8E06864682144846813
:105610006468A44630BC60476FF0150030BC70472A
:105620000029034610B410460ADB9C680844A042D7
:1056300006D8D8685B681944836810BC9B68184713
:105640006FF0150010BC704708B5C0688368DB6850
:105650009847006808BD08B5C0688368DB6898474C
:10566000007908BD70B54C680368A34201D20120DF
:1056700070BD8A682244934201D30020F8E7D1E943
:1056800003254E69B54203D36FF00B038B61F4E73A
:105690001B1B42F835304368086902EBC0025360B7
:1056A0000B6901330B61E2E701F023BC014600689E
:1056B00001F01FBC08B5FCF75FFABDE80840FCF735
:1056C0005FBA00210120FFF7EFBF202809D9B0F110
:1056D000004F08D80138B0FA80F0C0F11F00400038
:1056E0007047082070473E207047034600201A5C30
:1056F00002B970470130FAE710B55AB10139841880
:1057000010F8012B11F8013FA04201D09A42F7D0C6
:10571000D01A10BD1046FCE710B5431E0A44914252
:1057200000D110BD11F8014B03F8014FF7E7C9B2E2
:1057300002440346934200D1704703F8011BF9E786
:105740004FF0FF3070470369C9B20C2201FB0233EE
:10575000186C00F0070070474FF02003EFF3118240
:1057600083F31288BFF36F8F036803F0C00343F025
:105770000203036082F31188BFF36F8F704770B527
:10578000C9B203694FF02004EFF3118584F3128846
:10579000BFF36F8F0C2606FB0134246C14F0C00499
:1057A00008D0A24206D085F31188BFF36F8F4FF067
:1057B000FF3070BD71430B4401221A6485F31188D8
:1057C000BFF36F8F43680B445B6898470020F0E796
:1057D0008022FFF7D4BFF8B5069F0469C9B24FF025
:1057E0002005EFF3118685F31288BFF36F8F0C2528
:1057F00069430C44256C05F0070CBCF1010F0BD17B
:10580000276486F31188BFF36F8FC4E90E234368C2
:105810005B5898470020F8BD05F0C005AF4286F3FD
:105820001188BFF36F8F0CBF6FF077004FF0FF3020
:10583000F1E713B580240094FFF7CDFF02B010BD4F
:105840006FF08500704710B40069CBB21C2403FBD5
:105850000400002110BC10470020FDF769BE0020A5
:1058600000F0FDB838B505460C4600F07AF9002D79
:1058700007DBA84205D9401B84428CBF00200120D1
:1058800038BD0020FCE770B50D462846194616467F
:105890001C46FFF7E7FF38B124B1224629463046BF
:1058A000FFF73AFF002070BD6FF01500FBE7F7B57A
:1058B0001C461646002382682360A36013690D46C8
:1058C00001AA69469847019B5A1E01921BB96FF0C5
:1058D000150003B0F0BD0098A268476821686760B2
:1058E00085B9B31AD0F800C0634528BF63461A448F
:1058F00003FB07112160A26002689A4206D80830B3
:105900000090E0E76B1AB3FBF7F3EBE70020E0E76A
:1059100013460022FFF7CBBF2DE9F047836886B01E
:105920001B698846914601A902AA98470024A2460D
:105930002546029BAB4202D806B0BDE8F087019F26
:1059400007EBC50700267B6804933A68B2420AEB6E
:10595000060302D801359A46EBE7039405934946BE
:1059600003A8C0470028E7D0049B01361C44ECE79D
:1059700043685B68D3F810350B60002070474368BC
:105980005B6802EA010021EA0201C3F80805C3F8D6
:105990000C150020704743685B680020C3F80815A9
:1059A000704743685B680020C3F80C157047436874
:1059B0005A68D2F8043521EA03000B40C2F8080502
:1059C000C2F80C350020704710B503695868F8B16B
:1059D000884219D19C6808685860A14200D198603B
:1059E000002008602AB15A680A609A68596002B9B2
:1059F0009960002010E0814206D108682060986814
:105A00008142EDD19C60EBE7044600680028F2D1AA
:105A1000002AE8D16FF0150010BD30B5436813605F
:105A2000057A446804EBC504A34202D36FF0010079
:105A300030BD5C798C4201D00833F0E70020F7E7F5
:105A400000F150039B009BB203F1804303F58833C0
:105A500000221A601B687047004701F02EBAFDF75C
:105A6000E1BCF7B5019001A8DDE9084716461D46DF
:105A7000FDF7F2FD019BB6F1000C18BF4FF0010CD1
:105A800000EB83000B1E18BF0123002D43EA4C03DB
:105A900014BF4FF00C0C4FF0000C002C43EA0C0329
:105AA00014BF4FF4E06C4FF0000C002F43EA0C03DE
:105AB000D0F8002714BF4FF4403C4FF0000C43EAED
:105AC0000C0322EA030301B109780EB1367876009F
:105AD00019430DB12D78AD0031430CB12478240267
